{
  "_format": "hh-sol-artifact-1",
  "contractName": "DeviceRegistry",
  "sourceName": "contracts/DeviceRegistry.sol",
  "abi": [
    {
      "inputs": [
        {
          "internalType": "address",
          "name": "_accessManager",
          "type": "address"
        }
      ],
      "stateMutability": "nonpayable",
      "type": "constructor"
    },
    {
      "inputs": [],
      "name": "ArrayLengthMismatch",
      "type": "error"
    },
    {
      "inputs": [],
      "name": "DeviceExists",
      "type": "error"
    },
    {
      "inputs": [],
      "name": "DeviceNotFound",
      "type": "error"
    },
    {
      "inputs": [],
      "name": "InvalidDeviceType",
      "type": "error"
    },
    {
      "inputs": [],
      "name": "InvalidShortString",
      "type": "error"
    },
    {
      "inputs": [],
      "name": "InvalidSignature",
      "type": "error"
    },
    {
      "inputs": [],
      "name": "NotAdmin",
      "type": "error"
    },
    {
      "inputs": [],
      "name": "NotDeviceManager",
      "type": "error"
    },
    {
      "inputs": [
        {
          "internalType": "string",
          "name": "str",
          "type": "string"
        }
      ],
      "name": "StringTooLong",
      "type": "error"
    },
    {
      "inputs": [],
      "name": "Unauthorized",
      "type": "error"
    },
    {
      "anonymous": false,
      "inputs": [
        {
          "indexed": true,
          "internalType": "bytes32",
          "name": "deviceHash",
          "type": "bytes32"
        },
        {
          "indexed": true,
          "internalType": "address",
          "name": "previousOwner",
          "type": "address"
        },
        {
          "indexed": true,
          "internalType": "address",
          "name": "newOwner",
          "type": "address"
        },
        {
          "indexed": false,
          "internalType": "uint256",
          "name": "timestamp",
          "type": "uint256"
        }
      ],
      "name": "DeviceOwnershipTransferred",
      "type": "event"
    },
    {
      "anonymous": false,
      "inputs": [
        {
          "indexed": true,
          "internalType": "bytes32",
          "name": "deviceHash",
          "type": "bytes32"
        },
        {
          "indexed": true,
          "internalType": "address",
          "name": "owner",
          "type": "address"
        },
        {
          "indexed": false,
          "internalType": "string",
          "name": "ipfsCid",
          "type": "string"
        },
        {
          "indexed": false,
          "internalType": "uint256",
          "name": "timestamp",
          "type": "uint256"
        }
      ],
      "name": "DeviceRegistered",
      "type": "event"
    },
    {
      "anonymous": false,
      "inputs": [
        {
          "indexed": true,
          "internalType": "bytes32",
          "name": "deviceHash",
          "type": "bytes32"
        },
        {
          "indexed": false,
          "internalType": "uint256",
          "name": "timestamp",
          "type": "uint256"
        }
      ],
      "name": "DeviceRetired",
      "type": "event"
    },
    {
      "anonymous": false,
      "inputs": [
        {
          "indexed": true,
          "internalType": "bytes32",
          "name": "deviceHash",
          "type": "bytes32"
        },
        {
          "indexed": false,
          "internalType": "enum DeviceRegistry.DeviceStatus",
          "name": "newStatus",
          "type": "uint8"
        },
        {
          "indexed": true,
          "internalType": "address",
          "name": "updatedBy",
          "type": "address"
        },
        {
          "indexed": false,
          "internalType": "uint256",
          "name": "timestamp",
          "type": "uint256"
        }
      ],
      "name": "DeviceStatusUpdated",
      "type": "event"
    },
    {
      "anonymous": false,
      "inputs": [],
      "name": "EIP712DomainChanged",
      "type": "event"
    },
    {
      "anonymous": false,
      "inputs": [
        {
          "indexed": false,
          "internalType": "address",
          "name": "account",
          "type": "address"
        }
      ],
      "name": "Paused",
      "type": "event"
    },
    {
      "anonymous": false,
      "inputs": [
        {
          "indexed": true,
          "internalType": "bytes32",
          "name": "role",
          "type": "bytes32"
        },
        {
          "indexed": true,
          "internalType": "bytes32",
          "name": "previousAdminRole",
          "type": "bytes32"
        },
        {
          "indexed": true,
          "internalType": "bytes32",
          "name": "newAdminRole",
          "type": "bytes32"
        }
      ],
      "name": "RoleAdminChanged",
      "type": "event"
    },
    {
      "anonymous": false,
      "inputs": [
        {
          "indexed": true,
          "internalType": "bytes32",
          "name": "role",
          "type": "bytes32"
        },
        {
          "indexed": true,
          "internalType": "address",
          "name": "account",
          "type": "address"
        },
        {
          "indexed": true,
          "internalType": "address",
          "name": "sender",
          "type": "address"
        }
      ],
      "name": "RoleGranted",
      "type": "event"
    },
    {
      "anonymous": false,
      "inputs": [
        {
          "indexed": true,
          "internalType": "bytes32",
          "name": "role",
          "type": "bytes32"
        },
        {
          "indexed": true,
          "internalType": "address",
          "name": "account",
          "type": "address"
        },
        {
          "indexed": true,
          "internalType": "address",
          "name": "sender",
          "type": "address"
        }
      ],
      "name": "RoleRevoked",
      "type": "event"
    },
    {
      "anonymous": false,
      "inputs": [
        {
          "indexed": false,
          "internalType": "address",
          "name": "account",
          "type": "address"
        }
      ],
      "name": "Unpaused",
      "type": "event"
    },
    {
      "inputs": [],
      "name": "ADMIN_ROLE",
      "outputs": [
        {
          "internalType": "bytes32",
          "name": "",
          "type": "bytes32"
        }
      ],
      "stateMutability": "view",
      "type": "function"
    },
    {
      "inputs": [],
      "name": "DEFAULT_ADMIN_ROLE",
      "outputs": [
        {
          "internalType": "bytes32",
          "name": "",
          "type": "bytes32"
        }
      ],
      "stateMutability": "view",
      "type": "function"
    },
    {
      "inputs": [],
      "name": "DEVICE_MANAGER_ROLE",
      "outputs": [
        {
          "internalType": "bytes32",
          "name": "",
          "type": "bytes32"
        }
      ],
      "stateMutability": "view",
      "type": "function"
    },
    {
      "inputs": [],
      "name": "accessManager",
      "outputs": [
        {
          "internalType": "contract AccessManager",
          "name": "",
          "type": "address"
        }
      ],
      "stateMutability": "view",
      "type": "function"
    },
    {
      "inputs": [
        {
          "internalType": "bytes32[]",
          "name": "deviceHashes",
          "type": "bytes32[]"
        },
        {
          "internalType": "enum DeviceRegistry.DeviceStatus[]",
          "name": "newStatuses",
          "type": "uint8[]"
        }
      ],
      "name": "batchUpdateStatus",
      "outputs": [],
      "stateMutability": "nonpayable",
      "type": "function"
    },
    {
      "inputs": [],
      "name": "eip712Domain",
      "outputs": [
        {
          "internalType": "bytes1",
          "name": "fields",
          "type": "bytes1"
        },
        {
          "internalType": "string",
          "name": "name",
          "type": "string"
        },
        {
          "internalType": "string",
          "name": "version",
          "type": "string"
        },
        {
          "internalType": "uint256",
          "name": "chainId",
          "type": "uint256"
        },
        {
          "internalType": "address",
          "name": "verifyingContract",
          "type": "address"
        },
        {
          "internalType": "bytes32",
          "name": "salt",
          "type": "bytes32"
        },
        {
          "internalType": "uint256[]",
          "name": "extensions",
          "type": "uint256[]"
        }
      ],
      "stateMutability": "view",
      "type": "function"
    },
    {
      "inputs": [
        {
          "internalType": "address",
          "name": "owner",
          "type": "address"
        },
        {
          "internalType": "uint256",
          "name": "page",
          "type": "uint256"
        },
        {
          "internalType": "uint256",
          "name": "pageSize",
          "type": "uint256"
        }
      ],
      "name": "getDevicesByOwnerPaginated",
      "outputs": [
        {
          "components": [
            {
              "internalType": "bytes32",
              "name": "deviceHash",
              "type": "bytes32"
            },
            {
              "internalType": "address",
              "name": "owner",
              "type": "address"
            },
            {
              "internalType": "enum DeviceRegistry.DeviceStatus",
              "name": "status",
              "type": "uint8"
            },
            {
              "internalType": "uint256",
              "name": "registrationDate",
              "type": "uint256"
            },
            {
              "internalType": "uint256",
              "name": "lastUpdated",
              "type": "uint256"
            },
            {
              "internalType": "string",
              "name": "ipfsCid",
              "type": "string"
            }
          ],
          "internalType": "struct DeviceRegistry.DeviceView[]",
          "name": "",
          "type": "tuple[]"
        }
      ],
      "stateMutability": "view",
      "type": "function"
    },
    {
      "inputs": [
        {
          "internalType": "bytes32",
          "name": "role",
          "type": "bytes32"
        }
      ],
      "name": "getRoleAdmin",
      "outputs": [
        {
          "internalType": "bytes32",
          "name": "",
          "type": "bytes32"
        }
      ],
      "stateMutability": "view",
      "type": "function"
    },
    {
      "inputs": [
        {
          "internalType": "bytes32",
          "name": "role",
          "type": "bytes32"
        },
        {
          "internalType": "address",
          "name": "account",
          "type": "address"
        }
      ],
      "name": "grantRole",
      "outputs": [],
      "stateMutability": "nonpayable",
      "type": "function"
    },
    {
      "inputs": [
        {
          "internalType": "bytes32",
          "name": "role",
          "type": "bytes32"
        },
        {
          "internalType": "address",
          "name": "account",
          "type": "address"
        }
      ],
      "name": "hasRole",
      "outputs": [
        {
          "internalType": "bool",
          "name": "",
          "type": "bool"
        }
      ],
      "stateMutability": "view",
      "type": "function"
    },
    {
      "inputs": [],
      "name": "pause",
      "outputs": [],
      "stateMutability": "nonpayable",
      "type": "function"
    },
    {
      "inputs": [],
      "name": "paused",
      "outputs": [
        {
          "internalType": "bool",
          "name": "",
          "type": "bool"
        }
      ],
      "stateMutability": "view",
      "type": "function"
    },
    {
      "inputs": [
        {
          "internalType": "bytes32",
          "name": "deviceHash",
          "type": "bytes32"
        },
        {
          "internalType": "string",
          "name": "ipfsCid",
          "type": "string"
        },
        {
          "internalType": "bytes",
          "name": "signature",
          "type": "bytes"
        }
      ],
      "name": "registerDevice",
      "outputs": [],
      "stateMutability": "nonpayable",
      "type": "function"
    },
    {
      "inputs": [
        {
          "internalType": "bytes32",
          "name": "role",
          "type": "bytes32"
        },
        {
          "internalType": "address",
          "name": "account",
          "type": "address"
        }
      ],
      "name": "renounceRole",
      "outputs": [],
      "stateMutability": "nonpayable",
      "type": "function"
    },
    {
      "inputs": [
        {
          "internalType": "bytes32",
          "name": "deviceHash",
          "type": "bytes32"
        }
      ],
      "name": "retireDevice",
      "outputs": [],
      "stateMutability": "nonpayable",
      "type": "function"
    },
    {
      "inputs": [
        {
          "internalType": "bytes32",
          "name": "role",
          "type": "bytes32"
        },
        {
          "internalType": "address",
          "name": "account",
          "type": "address"
        }
      ],
      "name": "revokeRole",
      "outputs": [],
      "stateMutability": "nonpayable",
      "type": "function"
    },
    {
      "inputs": [
        {
          "internalType": "bytes4",
          "name": "interfaceId",
          "type": "bytes4"
        }
      ],
      "name": "supportsInterface",
      "outputs": [
        {
          "internalType": "bool",
          "name": "",
          "type": "bool"
        }
      ],
      "stateMutability": "view",
      "type": "function"
    },
    {
      "inputs": [
        {
          "internalType": "bytes32",
          "name": "deviceHash",
          "type": "bytes32"
        },
        {
          "internalType": "address",
          "name": "newOwner",
          "type": "address"
        }
      ],
      "name": "transferOwnership",
      "outputs": [],
      "stateMutability": "nonpayable",
      "type": "function"
    },
    {
      "inputs": [],
      "name": "unpause",
      "outputs": [],
      "stateMutability": "nonpayable",
      "type": "function"
    },
    {
      "inputs": [
        {
          "internalType": "bytes32",
          "name": "deviceHash",
          "type": "bytes32"
        },
        {
          "internalType": "enum DeviceRegistry.DeviceStatus",
          "name": "newStatus",
          "type": "uint8"
        }
      ],
      "name": "updateDeviceStatus",
      "outputs": [],
      "stateMutability": "nonpayable",
      "type": "function"
    }
  ],
  "bytecode": "0x6101806040523480156200001257600080fd5b5060405162002bcd38038062002bcd833981016040819052620000359162000326565b604080518082018252600e81526d446576696365526567697374727960901b60208083019190915282518084019093526003808452620312e360ec1b918401919091526001805460ff1916815560025590919062000095908390620001b5565b61012052620000a6816004620001b5565b61014052815160208084019190912060e052815190820120610100524660a0526200013460e05161010051604080517f8b73c3c69bb8fe3d512ecc4cf759cc79239f7b179b0ffacaa9a75d522b39400f60208201529081019290925260608201524660808201523060a082015260009060c00160405160208183030381529060405280519060200120905090565b60805250503060c0526001600160a01b0381166101605262000158600033620001ee565b6200017360008051602062002bad83398151915233620001ee565b620001ae7fd467a5e095ce9c4c4990c87ea364419e874fc48520db2db46312f0e95ebbd14b60008051602062002bad8339815191526200028f565b506200053e565b6000602083511015620001d557620001cd83620002da565b9050620001e8565b81620001e28482620003fd565b5060ff90505b92915050565b6000828152602081815260408083206001600160a01b038516845290915290205460ff166200028b576000828152602081815260408083206001600160a01b03851684529091529020805460ff191660011790556200024a3390565b6001600160a01b0316816001600160a01b0316837f2f8788117e7eff1d82e926ec794901d17c78024a50270940304540a733656f0d60405160405180910390a45b5050565b600082815260208190526040808220600101805490849055905190918391839186917fbd79b86ffe0ab8e8776151514217cd7cacd52c909f66475c3af44e129f0b00ff9190a4505050565b600080829050601f8151111562000311578260405163305a27a960e01b8152600401620003089190620004c9565b60405180910390fd5b80516200031e8262000519565b179392505050565b6000602082840312156200033957600080fd5b81516001600160a01b03811681146200035157600080fd5b9392505050565b634e487b7160e01b600052604160045260246000fd5b600181811c908216806200038357607f821691505b602082108103620003a457634e487b7160e01b600052602260045260246000fd5b50919050565b601f821115620003f857600081815260208120601f850160051c81016020861015620003d35750805b601f850160051c820191505b81811015620003f457828155600101620003df565b5050505b505050565b81516001600160401b0381111562000419576200041962000358565b62000431816200042a84546200036e565b84620003aa565b602080601f831160018114620004695760008415620004505750858301515b600019600386901b1c1916600185901b178555620003f4565b600085815260208120601f198616915b828110156200049a5788860151825594840194600190910190840162000479565b5085821015620004b95787850151600019600388901b60f8161c191681555b5050505050600190811b01905550565b600060208083528351808285015260005b81811015620004f857858101830151858201604001528201620004da565b506000604082860101526040601f19601f8301168501019250505092915050565b80516020808301519190811015620003a45760001960209190910360031b1b16919050565b60805160a05160c05160e051610100516101205161014051610160516125d1620005dc600039600081816102c1015281816104420152818161047101528181610580015281816105af015281816109bf015281816109ee01528181610bcb0152610bfa015260006106f3015260006106c801526000611b7001526000611b4801526000611aa301526000611acd01526000611af701526125d16000f3fe608060405234801561001057600080fd5b506004361061012c5760003560e01c806391d14854116100ad578063d547741f11610071578063d547741f14610283578063ef5d6bbb14610296578063f76baccf146102a9578063fdcb6068146102bc578063ff091fda146102fb57600080fd5b806391d1485414610222578063a217fddf14610235578063a507cf3e1461023d578063adc6a76b1461025d578063d015dda11461027057600080fd5b80633f4ba83a116100f45780633f4ba83a146101c55780635c975abb146101cd57806375b238fc146101d85780638456cb59146101ff57806384b0196e1461020757600080fd5b806301ffc9a714610131578063248a9ca3146101595780632f2ff15d1461018a57806336568abe1461019f5780633dac69f2146101b2575b600080fd5b61014461013f366004611e41565b610322565b60405190151581526020015b60405180910390f35b61017c610167366004611e6b565b60009081526020819052604090206001015490565b604051908152602001610150565b61019d610198366004611ea0565b610359565b005b61019d6101ad366004611ea0565b610383565b61019d6101c0366004611f0e565b610406565b61019d610440565b60015460ff16610144565b61017c7fa49807205ce4d355092ef5a8a18f56e8913cf4a201fbe287825b095693c2177581565b61019d61057e565b61020f6106ba565b6040516101509796959493929190611fd8565b610144610230366004611ea0565b610743565b61017c600081565b61025061024b36600461206e565b61076c565b60405161015091906120d9565b61019d61026b366004612199565b6109bd565b61019d61027e366004612201565b610bc9565b61019d610291366004611ea0565b610e8b565b61019d6102a4366004611ea0565b610eb0565b61019d6102b7366004611e6b565b611099565b6102e37f000000000000000000000000000000000000000000000000000000000000000081565b6040516001600160a01b039091168152602001610150565b61017c7fd467a5e095ce9c4c4990c87ea364419e874fc48520db2db46312f0e95ebbd14b81565b60006001600160e01b03198216637965db0b60e01b148061035357506301ffc9a760e01b6001600160e01b03198316145b92915050565b60008281526020819052604090206001015461037481611192565b61037e838361119f565b505050565b6001600160a01b03811633146103f85760405162461bcd60e51b815260206004820152602f60248201527f416363657373436f6e74726f6c3a2063616e206f6e6c792072656e6f756e636560448201526e103937b632b9903337b91039b2b63360891b60648201526084015b60405180910390fd5b6104028282611223565b5050565b61040e611288565b6104166112ce565b6104238585858585611325565b61042f858585336114a3565b6104396001600255565b5050505050565b7f00000000000000000000000000000000000000000000000000000000000000006001600160a01b03166391d148547f00000000000000000000000000000000000000000000000000000000000000006001600160a01b031663662580686040518163ffffffff1660e01b8152600401602060405180830381865afa1580156104cd573d6000803e3d6000fd5b505050506040513d601f19601f820116820180604052508101906104f1919061226d565b6040516001600160e01b031960e084901b1681526004810191909152336024820152604401602060405180830381865afa158015610533573d6000803e3d6000fd5b505050506040513d601f19601f820116820180604052508101906105579190612286565b61057457604051637bfa4b9f60e01b815260040160405180910390fd5b61057c611677565b565b7f00000000000000000000000000000000000000000000000000000000000000006001600160a01b03166391d148547f00000000000000000000000000000000000000000000000000000000000000006001600160a01b031663662580686040518163ffffffff1660e01b8152600401602060405180830381865afa15801561060b573d6000803e3d6000fd5b505050506040513d601f19601f8201168201806040525081019061062f919061226d565b6040516001600160e01b031960e084901b1681526004810191909152336024820152604401602060405180830381865afa158015610671573d6000803e3d6000fd5b505050506040513d601f19601f820116820180604052508101906106959190612286565b6106b257604051637bfa4b9f60e01b815260040160405180910390fd5b61057c6116c9565b6000606080828080836106ee7f00000000000000000000000000000000000000000000000000000000000000006003611704565b6107197f00000000000000000000000000000000000000000000000000000000000000006004611704565b60408051600080825260208201909252600f60f81b9b939a50919850469750309650945092509050565b6000918252602082815260408084206001600160a01b0393909316845291905290205460ff1690565b6001600160a01b038316600090815260066020526040812060609161079184866122d4565b9050600061079f85836122eb565b835490915081116107b057806107b3565b82545b905060006107c183836122fe565b67ffffffffffffffff8111156107d9576107d96122a8565b60405190808252806020026020018201604052801561084357816020015b6108306040805160c081018252600080825260208201819052909182019081526020016000815260200160008152602001606081525090565b8152602001906001900390816107f75790505b509050825b828110156109b157600085828154811061086457610864612311565b600091825260208083209091015480835260058252604092839020835160c08101855282815281546001600160a01b038116948201949094529194509290919082019060ff600160a01b9091041660038111156108c3576108c36120a1565b8152825464ffffffffff600160a81b820481166020840152600160d01b9091041660408201526002830180546060909201916108fe90612327565b80601f016020809104026020016040519081016040528092919081815260200182805461092a90612327565b80156109775780601f1061094c57610100808354040283529160200191610977565b820191906000526020600020905b81548152906001019060200180831161095a57829003601f168201915b505050505081525084878561098c91906122fe565b8151811061099c5761099c612311565b60209081029190910101525050600101610848565b50979650505050505050565b7f00000000000000000000000000000000000000000000000000000000000000006001600160a01b03166391d148547f00000000000000000000000000000000000000000000000000000000000000006001600160a01b031663ff091fda6040518163ffffffff1660e01b8152600401602060405180830381865afa158015610a4a573d6000803e3d6000fd5b505050506040513d601f19601f82011682018060405250810190610a6e919061226d565b6040516001600160e01b031960e084901b1681526004810191909152336024820152604401602060405180830381865afa158015610ab0573d6000803e3d6000fd5b505050506040513d601f19601f82011682018060405250810190610ad49190612286565b610af1576040516358c0537b60e11b815260040160405180910390fd5b610af9611288565b600082815260056020526040812080549091600160a81b90910464ffffffffff169003610b3957604051636ee5783b60e11b815260040160405180910390fd5b80548290829060ff60a01b1916600160a01b836003811115610b5d57610b5d6120a1565b0217905550805464ffffffffff42908116600160d01b0264ffffffffff60d01b19909216919091178255604051339185917f61a26859f6c93197c83a8ee434709bfb4911c7ba4f7daed82ba6e5fe2762da1a91610bbc91879190612361565b60405180910390a3505050565b7f00000000000000000000000000000000000000000000000000000000000000006001600160a01b03166391d148547f00000000000000000000000000000000000000000000000000000000000000006001600160a01b031663ff091fda6040518163ffffffff1660e01b8152600401602060405180830381865afa158015610c56573d6000803e3d6000fd5b505050506040513d601f19601f82011682018060405250810190610c7a919061226d565b6040516001600160e01b031960e084901b1681526004810191909152336024820152604401602060405180830381865afa158015610cbc573d6000803e3d6000fd5b505050506040513d601f19601f82011682018060405250810190610ce09190612286565b610cfd576040516358c0537b60e11b815260040160405180910390fd5b82818114610d1e5760405163512509d360e11b815260040160405180910390fd5b60005b81811015610e8357600060056000888885818110610d4157610d41612311565b90506020020135815260200190815260200160002090508060000160159054906101000a900464ffffffffff1664ffffffffff16600003610d9557604051636ee5783b60e11b815260040160405180910390fd5b848483818110610da757610da7612311565b9050602002016020810190610dbc919061237c565b8154829060ff60a01b1916600160a01b836003811115610dde57610dde6120a1565b0217905550805464ffffffffff60d01b1916600160d01b4264ffffffffff160217815533878784818110610e1457610e14612311565b905060200201357f61a26859f6c93197c83a8ee434709bfb4911c7ba4f7daed82ba6e5fe2762da1a878786818110610e4e57610e4e612311565b9050602002016020810190610e63919061237c565b42604051610e72929190612361565b60405180910390a350600101610d21565b505050505050565b600082815260208190526040902060010154610ea681611192565b61037e8383611223565b60008281526007602052604090205482906001600160a01b03163314610ee8576040516282b42960e81b815260040160405180910390fd5b610ef0611288565b610ef86112ce565b600083815260076020908152604080832080546001600160a01b031981166001600160a01b038881169182179093556005855283862080547fff0000000000ffffffffffff000000000000000000000000000000000000000016909117600160d01b4264ffffffffff1602179055168084526006909252822090915b815481101561101e5785828281548110610f9057610f90612311565b9060005260206000200154036110165781548290610fb0906001906122fe565b81548110610fc057610fc0612311565b9060005260206000200154828281548110610fdd57610fdd612311565b906000526020600020018190555081805480610ffb57610ffb612397565b6001900381819060005260206000200160009055905561101e565b600101610f74565b506001600160a01b0380851660008181526006602090815260408083208054600181018255908452919092200188905551909184169087907fb96aec8f2760a218c2f2a7199a43aa8633afe5b27e537bf82df9e72a66ff7755906110859042815260200190565b60405180910390a4505061037e6001600255565b60008181526007602052604090205481906001600160a01b031633146110d1576040516282b42960e81b815260040160405180910390fd5b6110d9611288565b6110e16112ce565b600082815260056020526040812080549091600160a81b90910464ffffffffff16900361112157604051636ee5783b60e11b815260040160405180910390fd5b805464ffffffffff42908116600160d01b026affffffffff0000000000ff60a01b1990921691909117600360a01b17825560405190815283907fe4e9e0e6b9889fff20f193c3ccafd6ba5c39f42a703316940d3540ebc52c4f609060200160405180910390a2506104026001600255565b61119c81336117af565b50565b6111a98282610743565b610402576000828152602081815260408083206001600160a01b03851684529091529020805460ff191660011790556111df3390565b6001600160a01b0316816001600160a01b0316837f2f8788117e7eff1d82e926ec794901d17c78024a50270940304540a733656f0d60405160405180910390a45050565b61122d8282610743565b15610402576000828152602081815260408083206001600160a01b0385168085529252808320805460ff1916905551339285917ff6391f5c32d9c69d2a47ea670b442974b53935d1edc7fd64eb21e047a839171b9190a45050565b60015460ff161561057c5760405162461bcd60e51b815260206004820152601060248201526f14185d5cd8589b194e881c185d5cd95960821b60448201526064016103ef565b600280540361131f5760405162461bcd60e51b815260206004820152601f60248201527f5265656e7472616e637947756172643a207265656e7472616e742063616c6c0060448201526064016103ef565b60028055565b8215806113325750608083115b1561135057604051631013156760e21b815260040160405180910390fd5b600085815260056020526040902054600160a81b900464ffffffffff161561138b576040516344076d2f60e01b815260040160405180910390fd5b801561043957600061140b7fd2785f151c18b87d71fe1213237f8a6f367ef54a502fdc842d8b8a7e6505a2eb8787876040516113c89291906123ad565b6040519081900381206113f09392916020019283526020830191909152604082015260600190565b60405160208183030381529060405280519060200120611808565b9050600061145184848080601f01602080910402602001604051908101604052809392919081815260200183838082843760009201919091525086939250506118359050565b905061147d7fd467a5e095ce9c4c4990c87ea364419e874fc48520db2db46312f0e95ebbd14b82610743565b61149a57604051638baa579f60e01b815260040160405180910390fd5b50505050505050565b6040805160c081019091526001600160a01b038216815260009060208101600181526020014264ffffffffff1681526020014264ffffffffff16815260200186815260200185858080601f0160208091040260200160405190810160405280939291908181526020018383808284376000920182905250939094525050878152600560209081526040909120835181546001600160a01b039091166001600160a01b0319821681178355928501519495508594919350909183916001600160a81b03191617600160a01b83600381111561157f5761157f6120a1565b021790555060408201518154606084015164ffffffffff908116600160d01b0264ffffffffff60d01b1991909316600160a81b021669ffffffffffffffffffff60a81b19909116171781556080820151600182015560a082015160028201906115e89082612403565b5050506001600160a01b038216600081815260066020908152604080832080546001810182559084528284200189905588835260079091529081902080546001600160a01b031916831790555186907f3c127575a1a414a6c6a0e28ae10d8401f8b5322057b2dc4295d1e8fcf4d1074b90611668908890889042906124c3565b60405180910390a35050505050565b61167f611859565b6001805460ff191690557f5db9ee0a495bf2e6ff9c91a7834c1ba4fdd244a5e8aa4e537bd38aeae4b073aa335b6040516001600160a01b03909116815260200160405180910390a1565b6116d1611288565b6001805460ff1916811790557f62e78cea01bee320cd4e420270b5ea74000d11b0c9f74754ebdbfc544b05a258336116ac565b606060ff831461171e57611717836118a2565b9050610353565b81805461172a90612327565b80601f016020809104026020016040519081016040528092919081815260200182805461175690612327565b80156117a35780601f10611778576101008083540402835291602001916117a3565b820191906000526020600020905b81548152906001019060200180831161178657829003601f168201915b50505050509050610353565b6117b98282610743565b610402576117c6816118e1565b6117d18360206118f3565b6040516020016117e29291906124fc565b60408051601f198184030181529082905262461bcd60e51b82526103ef91600401612571565b6000610353611815611a96565b8360405161190160f01b8152600281019290925260228201526042902090565b60008060006118448585611bc6565b9150915061185181611c0b565b509392505050565b60015460ff1661057c5760405162461bcd60e51b815260206004820152601460248201527314185d5cd8589b194e881b9bdd081c185d5cd95960621b60448201526064016103ef565b606060006118af83611d55565b604080516020808252818301909252919250600091906020820181803683375050509182525060208101929092525090565b60606103536001600160a01b03831660145b606060006119028360026122d4565b61190d9060026122eb565b67ffffffffffffffff811115611925576119256122a8565b6040519080825280601f01601f19166020018201604052801561194f576020820181803683370190505b509050600360fc1b8160008151811061196a5761196a612311565b60200101906001600160f81b031916908160001a905350600f60fb1b8160018151811061199957611999612311565b60200101906001600160f81b031916908160001a90535060006119bd8460026122d4565b6119c89060016122eb565b90505b6001811115611a40576f181899199a1a9b1b9c1cb0b131b232b360811b85600f16601081106119fc576119fc612311565b1a60f81b828281518110611a1257611a12612311565b60200101906001600160f81b031916908160001a90535060049490941c93611a3981612584565b90506119cb565b508315611a8f5760405162461bcd60e51b815260206004820181905260248201527f537472696e67733a20686578206c656e67746820696e73756666696369656e7460448201526064016103ef565b9392505050565b6000306001600160a01b037f000000000000000000000000000000000000000000000000000000000000000016148015611aef57507f000000000000000000000000000000000000000000000000000000000000000046145b15611b1957507f000000000000000000000000000000000000000000000000000000000000000090565b611bc1604080517f8b73c3c69bb8fe3d512ecc4cf759cc79239f7b179b0ffacaa9a75d522b39400f60208201527f0000000000000000000000000000000000000000000000000000000000000000918101919091527f000000000000000000000000000000000000000000000000000000000000000060608201524660808201523060a082015260009060c00160405160208183030381529060405280519060200120905090565b905090565b6000808251604103611bfc5760208301516040840151606085015160001a611bf087828585611d7d565b94509450505050611c04565b506000905060025b9250929050565b6000816004811115611c1f57611c1f6120a1565b03611c275750565b6001816004811115611c3b57611c3b6120a1565b03611c885760405162461bcd60e51b815260206004820152601860248201527f45434453413a20696e76616c6964207369676e6174757265000000000000000060448201526064016103ef565b6002816004811115611c9c57611c9c6120a1565b03611ce95760405162461bcd60e51b815260206004820152601f60248201527f45434453413a20696e76616c6964207369676e6174757265206c656e6774680060448201526064016103ef565b6003816004811115611cfd57611cfd6120a1565b0361119c5760405162461bcd60e51b815260206004820152602260248201527f45434453413a20696e76616c6964207369676e6174757265202773272076616c604482015261756560f01b60648201526084016103ef565b600060ff8216601f81111561035357604051632cd44ac360e21b815260040160405180910390fd5b6000807f7fffffffffffffffffffffffffffffff5d576e7357a4501ddfe92f46681b20a0831115611db45750600090506003611e38565b6040805160008082526020820180845289905260ff881692820192909252606081018690526080810185905260019060a0016020604051602081039080840390855afa158015611e08573d6000803e3d6000fd5b5050604051601f1901519150506001600160a01b038116611e3157600060019250925050611e38565b9150600090505b94509492505050565b600060208284031215611e5357600080fd5b81356001600160e01b031981168114611a8f57600080fd5b600060208284031215611e7d57600080fd5b5035919050565b80356001600160a01b0381168114611e9b57600080fd5b919050565b60008060408385031215611eb357600080fd5b82359150611ec360208401611e84565b90509250929050565b60008083601f840112611ede57600080fd5b50813567ffffffffffffffff811115611ef657600080fd5b602083019150836020828501011115611c0457600080fd5b600080600080600060608688031215611f2657600080fd5b85359450602086013567ffffffffffffffff80821115611f4557600080fd5b611f5189838a01611ecc565b90965094506040880135915080821115611f6a57600080fd5b50611f7788828901611ecc565b969995985093965092949392505050565b60005b83811015611fa3578181015183820152602001611f8b565b50506000910152565b60008151808452611fc4816020860160208601611f88565b601f01601f19169290920160200192915050565b60ff60f81b881681526000602060e081840152611ff860e084018a611fac565b838103604085015261200a818a611fac565b606085018990526001600160a01b038816608086015260a0850187905284810360c0860152855180825283870192509083019060005b8181101561205c57835183529284019291840191600101612040565b50909c9b505050505050505050505050565b60008060006060848603121561208357600080fd5b61208c84611e84565b95602085013595506040909401359392505050565b634e487b7160e01b600052602160045260246000fd5b600481106120d557634e487b7160e01b600052602160045260246000fd5b9052565b60006020808301818452808551808352604092508286019150828160051b87010184880160005b8381101561217c57888303603f19018552815180518452878101516001600160a01b0316888501528681015160c09061213b898701826120b7565b50606082810151908601526080808301519086015260a09182015191850181905261216881860183611fac565b968901969450505090860190600101612100565b509098975050505050505050565b803560048110611e9b57600080fd5b600080604083850312156121ac57600080fd5b82359150611ec36020840161218a565b60008083601f8401126121ce57600080fd5b50813567ffffffffffffffff8111156121e657600080fd5b6020830191508360208260051b8501011115611c0457600080fd5b6000806000806040858703121561221757600080fd5b843567ffffffffffffffff8082111561222f57600080fd5b61223b888389016121bc565b9096509450602087013591508082111561225457600080fd5b50612261878288016121bc565b95989497509550505050565b60006020828403121561227f57600080fd5b5051919050565b60006020828403121561229857600080fd5b81518015158114611a8f57600080fd5b634e487b7160e01b600052604160045260246000fd5b634e487b7160e01b600052601160045260246000fd5b8082028115828204841417610353576103536122be565b80820180821115610353576103536122be565b81810381811115610353576103536122be565b634e487b7160e01b600052603260045260246000fd5b600181811c9082168061233b57607f821691505b60208210810361235b57634e487b7160e01b600052602260045260246000fd5b50919050565b6040810161236f82856120b7565b8260208301529392505050565b60006020828403121561238e57600080fd5b611a8f8261218a565b634e487b7160e01b600052603160045260246000fd5b8183823760009101908152919050565b601f82111561037e57600081815260208120601f850160051c810160208610156123e45750805b601f850160051c820191505b81811015610e83578281556001016123f0565b815167ffffffffffffffff81111561241d5761241d6122a8565b6124318161242b8454612327565b846123bd565b602080601f831160018114612466576000841561244e5750858301515b600019600386901b1c1916600185901b178555610e83565b600085815260208120601f198616915b8281101561249557888601518255948401946001909101908401612476565b50858210156124b35787850151600019600388901b60f8161c191681555b5050505050600190811b01905550565b604081528260408201528284606083013760006060848301015260006060601f19601f8601168301019050826020830152949350505050565b7f416363657373436f6e74726f6c3a206163636f756e7420000000000000000000815260008351612534816017850160208801611f88565b7001034b99036b4b9b9b4b733903937b6329607d1b6017918401918201528351612565816028840160208801611f88565b01602801949350505050565b602081526000611a8f6020830184611fac565b600081612593576125936122be565b50600019019056fea2646970667358221220966a851d483aa1116b8e82a8abdbfe223093004c0727cfeeffe6e45ac49ad3e664736f6c63430008130033a49807205ce4d355092ef5a8a18f56e8913cf4a201fbe287825b095693c21775",
  "linkReferences": {},
  "deployedLinkReferences": {}
}