{
  "_format": "hh-sol-artifact-1",
  "contractName": "OracleIntegration",
  "sourceName": "contracts/OracleIntegration.sol",
  "abi": [
    {
      "inputs": [
        {
          "internalType": "address",
          "name": "_accessManager",
          "type": "address"
        },
        {
          "internalType": "address",
          "name": "_linkToken",
          "type": "address"
        },
        {
          "internalType": "address",
          "name": "_oracle",
          "type": "address"
        },
        {
          "internalType": "bytes32",
          "name": "_jobId",
          "type": "bytes32"
        },
        {
          "internalType": "uint256",
          "name": "_fee",
          "type": "uint256"
        },
        {
          "internalType": "address",
          "name": "_dataLedger",
          "type": "address"
        },
        {
          "internalType": "address",
          "name": "_rewardToken",
          "type": "address"
        }
      ],
      "stateMutability": "nonpayable",
      "type": "constructor"
    },
    {
      "anonymous": false,
      "inputs": [
        {
          "indexed": true,
          "internalType": "bytes32",
          "name": "id",
          "type": "bytes32"
        }
      ],
      "name": "ChainlinkCancelled",
      "type": "event"
    },
    {
      "anonymous": false,
      "inputs": [
        {
          "indexed": true,
          "internalType": "bytes32",
          "name": "id",
          "type": "bytes32"
        }
      ],
      "name": "ChainlinkFulfilled",
      "type": "event"
    },
    {
      "anonymous": false,
      "inputs": [
        {
          "indexed": true,
          "internalType": "bytes32",
          "name": "id",
          "type": "bytes32"
        }
      ],
      "name": "ChainlinkRequested",
      "type": "event"
    },
    {
      "anonymous": false,
      "inputs": [
        {
          "indexed": true,
          "internalType": "bytes32",
          "name": "deviceHash",
          "type": "bytes32"
        },
        {
          "indexed": false,
          "internalType": "uint256",
          "name": "recordIndex",
          "type": "uint256"
        },
        {
          "indexed": false,
          "internalType": "bool",
          "name": "finalValidity",
          "type": "bool"
        },
        {
          "indexed": true,
          "internalType": "address",
          "name": "resolver",
          "type": "address"
        }
      ],
      "name": "DisputeResolved",
      "type": "event"
    },
    {
      "anonymous": false,
      "inputs": [
        {
          "indexed": true,
          "internalType": "bytes32",
          "name": "requestId",
          "type": "bytes32"
        },
        {
          "indexed": false,
          "internalType": "bool",
          "name": "isValid",
          "type": "bool"
        },
        {
          "indexed": true,
          "internalType": "address",
          "name": "validator",
          "type": "address"
        }
      ],
      "name": "VerificationCompleted",
      "type": "event"
    },
    {
      "anonymous": false,
      "inputs": [
        {
          "indexed": true,
          "internalType": "bytes32",
          "name": "requestId",
          "type": "bytes32"
        },
        {
          "indexed": true,
          "internalType": "bytes32",
          "name": "deviceHash",
          "type": "bytes32"
        },
        {
          "indexed": false,
          "internalType": "uint256",
          "name": "recordIndex",
          "type": "uint256"
        },
        {
          "indexed": true,
          "internalType": "address",
          "name": "disputer",
          "type": "address"
        }
      ],
      "name": "VerificationRequested",
      "type": "event"
    },
    {
      "inputs": [],
      "name": "accessManager",
      "outputs": [
        {
          "internalType": "contract AccessManager",
          "name": "",
          "type": "address"
        }
      ],
      "stateMutability": "view",
      "type": "function"
    },
    {
      "inputs": [],
      "name": "dataLedger",
      "outputs": [
        {
          "internalType": "contract IoTDataLedger",
          "name": "",
          "type": "address"
        }
      ],
      "stateMutability": "view",
      "type": "function"
    },
    {
      "inputs": [
        {
          "internalType": "bytes32",
          "name": "_requestId",
          "type": "bytes32"
        },
        {
          "internalType": "bool",
          "name": "_isValid",
          "type": "bool"
        }
      ],
      "name": "fulfillVerification",
      "outputs": [],
      "stateMutability": "nonpayable",
      "type": "function"
    },
    {
      "inputs": [],
      "name": "getPendingDisputes",
      "outputs": [
        {
          "components": [
            {
              "internalType": "bytes32",
              "name": "deviceHash",
              "type": "bytes32"
            },
            {
              "internalType": "uint256",
              "name": "recordIndex",
              "type": "uint256"
            },
            {
              "internalType": "address",
              "name": "disputer",
              "type": "address"
            },
            {
              "internalType": "bool",
              "name": "resolved",
              "type": "bool"
            },
            {
              "internalType": "uint256",
              "name": "timestamp",
              "type": "uint256"
            }
          ],
          "internalType": "struct OracleIntegration.VerificationRequest[]",
          "name": "",
          "type": "tuple[]"
        }
      ],
      "stateMutability": "view",
      "type": "function"
    },
    {
      "inputs": [],
      "name": "requestCount",
      "outputs": [
        {
          "internalType": "uint256",
          "name": "",
          "type": "uint256"
        }
      ],
      "stateMutability": "view",
      "type": "function"
    },
    {
      "inputs": [
        {
          "internalType": "bytes32",
          "name": "deviceHash",
          "type": "bytes32"
        },
        {
          "internalType": "uint256",
          "name": "recordIndex",
          "type": "uint256"
        },
        {
          "internalType": "string",
          "name": "externalAPI",
          "type": "string"
        }
      ],
      "name": "requestDataVerification",
      "outputs": [
        {
          "internalType": "bytes32",
          "name": "requestId",
          "type": "bytes32"
        }
      ],
      "stateMutability": "nonpayable",
      "type": "function"
    },
    {
      "inputs": [
        {
          "internalType": "bytes32",
          "name": "",
          "type": "bytes32"
        }
      ],
      "name": "requestIdToKey",
      "outputs": [
        {
          "internalType": "bytes32",
          "name": "",
          "type": "bytes32"
        }
      ],
      "stateMutability": "view",
      "type": "function"
    },
    {
      "inputs": [
        {
          "internalType": "bytes32",
          "name": "",
          "type": "bytes32"
        }
      ],
      "name": "requests",
      "outputs": [
        {
          "internalType": "bytes32",
          "name": "deviceHash",
          "type": "bytes32"
        },
        {
          "internalType": "uint256",
          "name": "recordIndex",
          "type": "uint256"
        },
        {
          "internalType": "address",
          "name": "disputer",
          "type": "address"
        },
        {
          "internalType": "bool",
          "name": "resolved",
          "type": "bool"
        },
        {
          "internalType": "uint256",
          "name": "timestamp",
          "type": "uint256"
        }
      ],
      "stateMutability": "view",
      "type": "function"
    },
    {
      "inputs": [
        {
          "internalType": "bytes32",
          "name": "deviceHash",
          "type": "bytes32"
        },
        {
          "internalType": "uint256",
          "name": "recordIndex",
          "type": "uint256"
        },
        {
          "internalType": "bool",
          "name": "finalValidity",
          "type": "bool"
        }
      ],
      "name": "resolveDispute",
      "outputs": [],
      "stateMutability": "nonpayable",
      "type": "function"
    },
    {
      "inputs": [],
      "name": "rewardToken",
      "outputs": [
        {
          "internalType": "contract TokenRewards",
          "name": "",
          "type": "address"
        }
      ],
      "stateMutability": "view",
      "type": "function"
    },
    {
      "inputs": [
        {
          "internalType": "address",
          "name": "newOracle",
          "type": "address"
        },
        {
          "internalType": "bytes32",
          "name": "newJobId",
          "type": "bytes32"
        },
        {
          "internalType": "uint256",
          "name": "newFee",
          "type": "uint256"
        }
      ],
      "name": "updateOracleConfig",
      "outputs": [],
      "stateMutability": "nonpayable",
      "type": "function"
    },
    {
      "inputs": [
        {
          "internalType": "bytes32",
          "name": "",
          "type": "bytes32"
        },
        {
          "internalType": "uint256",
          "name": "",
          "type": "uint256"
        }
      ],
      "name": "validRecords",
      "outputs": [
        {
          "internalType": "bool",
          "name": "",
          "type": "bool"
        }
      ],
      "stateMutability": "view",
      "type": "function"
    },
    {
      "inputs": [],
      "name": "withdrawLink",
      "outputs": [],
      "stateMutability": "nonpayable",
      "type": "function"
    }
  ],
  "bytecode": "0x60e060405260016004553480156200001657600080fd5b5060405162002550380380620025508339810160408190526200003991620000e4565b60016006556001600160a01b0387166080526200007286600280546001600160a01b0319166001600160a01b0392909216919091179055565b600380546001600160a01b0319166001600160a01b038716179055600780546001600160a01b0319166001600160a01b03968716179055600893909355600991909155821660a0521660c05250620001679050565b80516001600160a01b0381168114620000df57600080fd5b919050565b600080600080600080600060e0888a0312156200010057600080fd5b6200010b88620000c7565b96506200011b60208901620000c7565b95506200012b60408901620000c7565b945060608801519350608088015192506200014960a08901620000c7565b91506200015960c08901620000c7565b905092959891949750929550565b60805160a05160c051612357620001f96000396000818161025801528181610c77015261156401526000818161013101528181610b3501528181610bdd0152818161142801526114cd0152600081816102a5015281816104c3015281816104f2015281816106330152818161066201528181610a300152818161106401528181611093015261132901526123576000f3fe608060405234801561001057600080fd5b50600436106100cf5760003560e01c8063922d2aa61161008c578063f7c618c111610066578063f7c618c114610253578063f94928a91461027a578063faf0bbbf1461028d578063fdcb6068146102a057600080fd5b8063922d2aa61461019f5780639d866985146101bf578063efd716341461024057600080fd5b80630da19556146100d457806329f2c2d6146101175780633a234a4a1461012c5780635badbe4c1461016b5780638002a7f8146101825780638dc654a214610197575b600080fd5b6101026100e2366004611e0f565b600b60209081526000928352604080842090915290825290205460ff1681565b60405190151581526020015b60405180910390f35b61011f6102c7565b60405161010e9190611e31565b6101537f000000000000000000000000000000000000000000000000000000000000000081565b6040516001600160a01b03909116815260200161010e565b610174600d5481565b60405190815260200161010e565b610195610190366004611eaa565b6104c1565b005b610195610631565b6101746101ad366004611eeb565b600c6020526000908152604090205481565b61020a6101cd366004611eeb565b600a602052600090815260409020805460018201546002830154600390930154919290916001600160a01b03821691600160a01b900460ff169085565b6040805195865260208601949094526001600160a01b03909216928401929092529015156060830152608082015260a00161010e565b61019561024e366004611f12565b6108a0565b6101537f000000000000000000000000000000000000000000000000000000000000000081565b610174610288366004611f42565b610d22565b61019561029b366004611fc2565b611062565b6101537f000000000000000000000000000000000000000000000000000000000000000081565b60606000805b600d54811015610346576000816040516020016102ec91815260200190565b60408051808303601f1901815291815281516020928301206000818152600a909352912060020154909150600160a01b900460ff16610333578261032f81612011565b9350505b508061033e81612011565b9150506102cd565b5060008167ffffffffffffffff8111156103625761036261202a565b6040519080825280602002602001820160405280156103bb57816020015b6040805160a0810182526000808252602080830182905292820181905260608201819052608082015282526000199092019101816103805790505b5090506000805b600d548110156104b8576000816040516020016103e191815260200190565b60408051808303601f1901815291815281516020928301206000818152600a909352912060020154909150600160a01b900460ff166104a5576000818152600a6020908152604091829020825160a0810184528154815260018201549281019290925260028101546001600160a01b03811693830193909352600160a01b90920460ff16151560608201526003909101546080820152845185908590811061048b5761048b612040565b602002602001018190525082806104a190612011565b9350505b50806104b081612011565b9150506103c2565b50909392505050565b7f00000000000000000000000000000000000000000000000000000000000000006001600160a01b03166391d148547f00000000000000000000000000000000000000000000000000000000000000006001600160a01b031663662580686040518163ffffffff1660e01b8152600401602060405180830381865afa15801561054e573d6000803e3d6000fd5b505050506040513d601f19601f820116820180604052508101906105729190612056565b6040516001600160e01b031960e084901b1681526004810191909152336024820152604401602060405180830381865afa1580156105b4573d6000803e3d6000fd5b505050506040513d601f19601f820116820180604052508101906105d8919061206f565b6105fd5760405162461bcd60e51b81526004016105f49061208c565b60405180910390fd5b600380546001600160a01b03949094166001600160a01b031994851681179091556007805490941617909255600855600955565b7f00000000000000000000000000000000000000000000000000000000000000006001600160a01b03166391d148547f00000000000000000000000000000000000000000000000000000000000000006001600160a01b031663662580686040518163ffffffff1660e01b8152600401602060405180830381865afa1580156106be573d6000803e3d6000fd5b505050506040513d601f19601f820116820180604052508101906106e29190612056565b6040516001600160e01b031960e084901b1681526004810191909152336024820152604401602060405180830381865afa158015610724573d6000803e3d6000fd5b505050506040513d601f19601f82011682018060405250810190610748919061206f565b6107645760405162461bcd60e51b81526004016105f49061208c565b60006107786002546001600160a01b031690565b6040516370a0823160e01b81523060048201529091506001600160a01b0382169063a9059cbb90339083906370a0823190602401602060405180830381865afa1580156107c9573d6000803e3d6000fd5b505050506040513d601f19601f820116820180604052508101906107ed9190612056565b6040516001600160e01b031960e085901b1681526001600160a01b03909216600483015260248201526044016020604051808303816000875af1158015610838573d6000803e3d6000fd5b505050506040513d601f19601f8201168201806040525081019061085c919061206f565b61089d5760405162461bcd60e51b81526020600482015260126024820152712ab730b13632903a37903a3930b739b332b960711b60448201526064016105f4565b50565b60008281526005602052604090205482906001600160a01b031633146109195760405162461bcd60e51b815260206004820152602860248201527f536f75726365206d75737420626520746865206f7261636c65206f6620746865604482015267081c995c5d595cdd60c21b60648201526084016105f4565b60008181526005602052604080822080546001600160a01b03191690555182917f7cc135e0cebb02c3480ae5d74d377283180a2601f8f644edf7987b009316c63a91a26000838152600c6020908152604080832054808452600a9092529091206002810154600160a01b900460ff16156109d55760405162461bcd60e51b815260206004820152601960248201527f5265717565737420616c72656164792070726f6365737365640000000000000060448201526064016105f4565b80546000908152600b6020908152604080832060018501548452825291829020805487151560ff1990911617905560028301805460ff60a01b1916600160a01b17905581516322de3d2960e21b815291516001600160a01b037f000000000000000000000000000000000000000000000000000000000000000016926391d14854928492638b78f4a49260048082019392918290030181865afa158015610a80573d6000803e3d6000fd5b505050506040513d601f19601f82011682018060405250810190610aa49190612056565b6040516001600160e01b031960e084901b1681526004810191909152306024820152604401602060405180830381865afa158015610ae6573d6000803e3d6000fd5b505050506040513d601f19601f82011682018060405250810190610b0a919061206f565b15610c445780546001820154604051631a502dcb60e21b8152600481019290925260248201526000907f00000000000000000000000000000000000000000000000000000000000000006001600160a01b031690636940b72c90604401602060405180830381865afa158015610b84573d6000803e3d6000fd5b505050506040513d601f19601f82011682018060405250810190610ba891906120af565b905064ffffffffff811615610c425781546040516332090a1b60e21b8152600481019190915264ffffffffff821660248201527f00000000000000000000000000000000000000000000000000000000000000006001600160a01b03169063c824286c90604401600060405180830381600087803b158015610c2957600080fd5b505af1158015610c3d573d6000803e3d6000fd5b505050505b505b83610cd4578054600282015460405163492cb87160e11b815260048101929092526001600160a01b0390811660248301527f0000000000000000000000000000000000000000000000000000000000000000169063925970e290604401600060405180830381600087803b158015610cbb57600080fd5b505af1158015610ccf573d6000803e3d6000fd5b505050505b6040518415158152329086907f472b66db47a1994b230aebb63a051ba7d145c7b9963b0127b46623a3c5fe8b139060200160405180910390a3505050600091825250600c6020526040812055565b6000610d2c611612565b6000858152600b6020908152604080832087845290915290205460ff1615610d8a5760405162461bcd60e51b8152602060048201526011602482015270105b1c9958591e481d985b1a59185d1959607a1b60448201526064016105f4565b604080516020810187905290810185905260009060600160408051808303601f1901815291815281516020928301206000818152600a909352912060020154909150600160a01b900460ff1615610e2f5760405162461bcd60e51b815260206004820152602360248201527f5265717565737420616c72656164792065786973747320616e64207265736f6c6044820152621d995960ea1b60648201526084016105f4565b6000610e456008543063efd7163460e01b61166b565b9050610e95604051806040016040528060068152602001651b595d1a1bd960d21b8152506040518060400160405280600381526020016211d15560ea1b815250836116909092919063ffffffff16565b610ef4604051806040016040528060038152602001621d5c9b60ea1b81525086868080601f0160208091040260200160405190810160405280939291908181526020018383808284376000920191909152508694939250506116909050565b610f44604051806040016040528060048152602001630e0c2e8d60e31b815250604051806040016040528060078152602001661a5cd5985b1a5960ca1b815250836116909092919063ffffffff16565b60408051808201909152600581526474696d657360d81b6020820152610f6d90829060016116ae565b600754600954610f88916001600160a01b03169083906116cc565b6040805160a08101825289815260208082018a81523383850181815260006060860181815242608088019081528b8352600a87528883209751885594516001880155915160028701805493511515600160a01b026001600160a81b03199094166001600160a01b0390921691909117929092179091559151600390940193909355848152600c8252839020869055915189815292955091899186917fd2216946bd6b2b0aa9c6b9b98115de1dfcbd30e08ddfe8f1988451f7a3d92373910160405180910390a4505061105a6001600655565b949350505050565b7f00000000000000000000000000000000000000000000000000000000000000006001600160a01b03166391d148547f00000000000000000000000000000000000000000000000000000000000000006001600160a01b031663662580686040518163ffffffff1660e01b8152600401602060405180830381865afa1580156110ef573d6000803e3d6000fd5b505050506040513d601f19601f820116820180604052508101906111139190612056565b6040516001600160e01b031960e084901b1681526004810191909152336024820152604401602060405180830381865afa158015611155573d6000803e3d6000fd5b505050506040513d601f19601f82011682018060405250810190611179919061206f565b6111955760405162461bcd60e51b81526004016105f49061208c565b61119d611612565b604080516020808201869052818301859052825180830384018152606090920183528151918101919091206000818152600a90925291902060028101546001600160a01b031661122f5760405162461bcd60e51b815260206004820152601d60248201527f4e6f20766572696669636174696f6e207265717565737420666f756e6400000060448201526064016105f4565b6002810154600160a01b900460ff161561127e5760405162461bcd60e51b815260206004820152601060248201526f105b1c9958591e481c995cdbdb1d995960821b60448201526064016105f4565b600381015461128f90610e106120d6565b4210156112d45760405162461bcd60e51b8152602060048201526013602482015272151a5b595bdd5d081b9bdd081c995858da1959606a1b60448201526064016105f4565b6000858152600b60209081526040808320878452825291829020805486151560ff1990911617905560028301805460ff60a01b1916600160a01b17905581516322de3d2960e21b815291516001600160a01b037f000000000000000000000000000000000000000000000000000000000000000016926391d14854928492638b78f4a49260048082019392918290030181865afa158015611379573d6000803e3d6000fd5b505050506040513d601f19601f8201168201806040525081019061139d9190612056565b6040516001600160e01b031960e084901b1681526004810191909152306024820152604401602060405180830381865afa1580156113df573d6000803e3d6000fd5b505050506040513d601f19601f82011682018060405250810190611403919061206f565b1561153457604051631a502dcb60e21b815260048101869052602481018590526000907f00000000000000000000000000000000000000000000000000000000000000006001600160a01b031690636940b72c90604401602060405180830381865afa158015611477573d6000803e3d6000fd5b505050506040513d601f19601f8201168201806040525081019061149b91906120af565b905064ffffffffff811615611532576040516332090a1b60e21b81526004810187905264ffffffffff821660248201527f00000000000000000000000000000000000000000000000000000000000000006001600160a01b03169063c824286c90604401600060405180830381600087803b15801561151957600080fd5b505af115801561152d573d6000803e3d6000fd5b505050505b505b826115c357600281015460405163492cb87160e11b8152600481018790526001600160a01b0391821660248201527f00000000000000000000000000000000000000000000000000000000000000009091169063925970e290604401600060405180830381600087803b1580156115aa57600080fd5b505af11580156115be573d6000803e3d6000fd5b505050505b604080518581528415156020820152339187917fbc15360fdbc18726032673554343b47ea8c03297136da385c28550253778baf5910160405180910390a3505061160d6001600655565b505050565b6002600654036116645760405162461bcd60e51b815260206004820152601f60248201527f5265656e7472616e637947756172643a207265656e7472616e742063616c6c0060448201526064016105f4565b6002600655565b611673611dd4565b61167b611dd4565b6116878186868661175f565b95945050505050565b608083015161169f908361179c565b608083015161160d908261179c565b60808301516116bd908361179c565b608083015161160d90826117b3565b6004546000906116dd8160016120d6565b600455835160408086015160808701515191516000936320214ca360e11b936117159386938493923092918a9160019160240161212f565b60408051601f198184030181529190526020810180516001600160e01b03166001600160e01b031990931692909217909152905061175586838684611817565b9695505050505050565b611767611dd4565b6117778560800151610100611975565b50509183526001600160a01b031660208301526001600160e01b031916604082015290565b6117a982600383516119e0565b61160d8282611af5565b67ffffffffffffffff198112156117d2576117ce8282611b23565b5050565b67ffffffffffffffff8113156117ec576117ce8282611b65565b60008112611800576117ce826000836119e0565b6117ce82600161181284600019612197565b6119e0565b6040516bffffffffffffffffffffffff193060601b1660208201526034810184905260009060540160408051808303601f1901815282825280516020918201206000818152600590925291812080546001600160a01b0319166001600160a01b038a1617905590925082917fb5e6e01e79f91267dc17b4e6314d5d4d03593d2ceee0fbb452b750bd70ea5af99190a2600254604051630200057560e51b81526001600160a01b0390911690634000aea0906118da908890879087906004016121be565b6020604051808303816000875af11580156118f9573d6000803e3d6000fd5b505050506040513d601f19601f8201168201806040525081019061191d919061206f565b61105a5760405162461bcd60e51b815260206004820152602360248201527f756e61626c6520746f207472616e73666572416e6443616c6c20746f206f7261604482015262636c6560e81b60648201526084016105f4565b6040805180820190915260608152600060208201526119956020836121e5565b156119bd576119a56020836121e5565b6119b0906020612207565b6119ba90836120d6565b91505b506020808301829052604080518085526000815283019091019052815b92915050565b60178167ffffffffffffffff1611611a0b57611a058360e0600585901b168317611b88565b50505050565b60ff8167ffffffffffffffff1611611a4957611a32836018611fe0600586901b1617611b88565b50611a058367ffffffffffffffff83166001611bad565b61ffff8167ffffffffffffffff1611611a8857611a71836019611fe0600586901b1617611b88565b50611a058367ffffffffffffffff83166002611bad565b63ffffffff8167ffffffffffffffff1611611ac957611ab283601a611fe0600586901b1617611b88565b50611a058367ffffffffffffffff83166004611bad565b611ade83601b611fe0600586901b1617611b88565b50611a058367ffffffffffffffff83166008611bad565b604080518082019091526060815260006020820152611b1c83846000015151848551611bd3565b9392505050565b611b2e8260c3611b88565b506117ce82611b3f83600019612197565b604051602001611b5191815260200190565b604051602081830303815290604052611cbd565b611b708260c2611b88565b506117ce8282604051602001611b5191815260200190565b604080518082019091526060815260006020820152611b1c8384600001515184611cca565b60408051808201909152606081526000602082015261105a848560000151518585611d25565b6040805180820190915260608152600060208201528251821115611bf657600080fd5b6020850151611c0583866120d6565b1115611c3857611c3885611c2887602001518786611c2391906120d6565b611da6565b611c3390600261221a565b611dbd565b600080865180518760208301019350808887011115611c575787860182525b505050602084015b60208410611c975780518252611c766020836120d6565b9150611c836020826120d6565b9050611c90602085612207565b9350611c5f565b51815160001960208690036101000a019081169019919091161790525083949350505050565b6117a982600283516119e0565b60408051808201909152606081526000602082015283602001518310611cff57611cff8485602001516002611c33919061221a565b8351805160208583010184815350808503611d1b576001810182525b5093949350505050565b6040805180820190915260608152600060208201526020850151611d4985846120d6565b1115611d5d57611d5d85611c2886856120d6565b60006001611d6d84610100612315565b611d779190612207565b9050855183868201018583198251161781525080518487011115611d9b5783860181525b509495945050505050565b600081831115611db75750816119da565b50919050565b8151611dc98383611975565b50611a058382611af5565b6040805160a0810182526000808252602080830182905282840182905260608084018390528451808601909552845283015290608082015290565b60008060408385031215611e2257600080fd5b50508035926020909101359150565b602080825282518282018190526000919060409081850190868401855b82811015611e9d578151805185528681015187860152858101516001600160a01b0316868601526060808201511515908601526080908101519085015260a09093019290850190600101611e4e565b5091979650505050505050565b600080600060608486031215611ebf57600080fd5b83356001600160a01b0381168114611ed657600080fd5b95602085013595506040909401359392505050565b600060208284031215611efd57600080fd5b5035919050565b801515811461089d57600080fd5b60008060408385031215611f2557600080fd5b823591506020830135611f3781611f04565b809150509250929050565b60008060008060608587031215611f5857600080fd5b8435935060208501359250604085013567ffffffffffffffff80821115611f7e57600080fd5b818701915087601f830112611f9257600080fd5b813581811115611fa157600080fd5b886020828501011115611fb357600080fd5b95989497505060200194505050565b600080600060608486031215611fd757600080fd5b83359250602084013591506040840135611ff081611f04565b809150509250925092565b634e487b7160e01b600052601160045260246000fd5b60006001820161202357612023611ffb565b5060010190565b634e487b7160e01b600052604160045260246000fd5b634e487b7160e01b600052603260045260246000fd5b60006020828403121561206857600080fd5b5051919050565b60006020828403121561208157600080fd5b8151611b1c81611f04565b6020808252600990820152682737ba1030b236b4b760b91b604082015260600190565b6000602082840312156120c157600080fd5b815164ffffffffff81168114611b1c57600080fd5b808201808211156119da576119da611ffb565b6000815180845260005b8181101561210f576020818501810151868301820152016120f3565b506000602082860101526020601f19601f83011685010191505092915050565b6001600160a01b0389811682526020820189905260408201889052861660608201526001600160e01b03198516608082015260a0810184905260c0810183905261010060e08201819052600090612188838201856120e9565b9b9a5050505050505050505050565b81810360008312801583831316838312821617156121b7576121b7611ffb565b5092915050565b60018060a01b038416815282602082015260606040820152600061168760608301846120e9565b60008261220257634e487b7160e01b600052601260045260246000fd5b500690565b818103818111156119da576119da611ffb565b80820281158282048414176119da576119da611ffb565b600181815b8085111561226c57816000190482111561225257612252611ffb565b8085161561225f57918102915b93841c9390800290612236565b509250929050565b600082612283575060016119da565b81612290575060006119da565b81600181146122a657600281146122b0576122cc565b60019150506119da565b60ff8411156122c1576122c1611ffb565b50506001821b6119da565b5060208310610133831016604e8410600b84101617156122ef575081810a6119da565b6122f98383612231565b806000190482111561230d5761230d611ffb565b029392505050565b6000611b1c838361227456fea264697066735822122070bdac54c9bace88996ee88a400de2683c3b10f9040e5fe84377e74b780eba6b64736f6c63430008130033",
  "linkReferences": {},
  "deployedLinkReferences": {}
}